{
  "contractName": "scrum",
  "abi": [
    {
      "inputs": [],
      "stateMutability": "nonpayable",
      "type": "constructor"
    },
    {
      "anonymous": false,
      "inputs": [
        {
          "indexed": false,
          "internalType": "address",
          "name": "owner",
          "type": "address"
        },
        {
          "indexed": false,
          "internalType": "string",
          "name": "name",
          "type": "string"
        },
        {
          "indexed": false,
          "internalType": "uint256",
          "name": "conclusionTime",
          "type": "uint256"
        },
        {
          "indexed": false,
          "internalType": "uint256",
          "name": "effort",
          "type": "uint256"
        },
        {
          "indexed": false,
          "internalType": "enum scrum.taskProgress",
          "name": "phase",
          "type": "uint8"
        },
        {
          "indexed": false,
          "internalType": "uint256",
          "name": "priority",
          "type": "uint256"
        }
      ],
      "name": "TaskAdded",
      "type": "event"
    },
    {
      "inputs": [],
      "name": "nSprintTasks",
      "outputs": [
        {
          "internalType": "uint256",
          "name": "",
          "type": "uint256"
        }
      ],
      "stateMutability": "view",
      "type": "function",
      "constant": true
    },
    {
      "inputs": [
        {
          "internalType": "uint256",
          "name": "_taskIndex",
          "type": "uint256"
        }
      ],
      "name": "getSprintTask",
      "outputs": [
        {
          "internalType": "address",
          "name": "owner",
          "type": "address"
        },
        {
          "internalType": "string",
          "name": "name",
          "type": "string"
        },
        {
          "internalType": "uint256",
          "name": "conclusionTime",
          "type": "uint256"
        },
        {
          "internalType": "uint256",
          "name": "effort",
          "type": "uint256"
        },
        {
          "internalType": "enum scrum.taskProgress",
          "name": "phase",
          "type": "uint8"
        },
        {
          "internalType": "uint256",
          "name": "priority",
          "type": "uint256"
        }
      ],
      "stateMutability": "view",
      "type": "function",
      "constant": true
    },
    {
      "inputs": [],
      "name": "sprintTaskList",
      "outputs": [
        {
          "internalType": "uint256[]",
          "name": "",
          "type": "uint256[]"
        }
      ],
      "stateMutability": "view",
      "type": "function",
      "constant": true
    },
    {
      "inputs": [
        {
          "internalType": "string",
          "name": "_name",
          "type": "string"
        },
        {
          "internalType": "uint256",
          "name": "_conclusionTime",
          "type": "uint256"
        },
        {
          "internalType": "uint256",
          "name": "_effort",
          "type": "uint256"
        },
        {
          "internalType": "enum scrum.taskProgress",
          "name": "_phase",
          "type": "uint8"
        },
        {
          "internalType": "uint256",
          "name": "_priority",
          "type": "uint256"
        }
      ],
      "name": "addTask",
      "outputs": [
        {
          "internalType": "uint256",
          "name": "index",
          "type": "uint256"
        }
      ],
      "stateMutability": "nonpayable",
      "type": "function"
    },
    {
      "inputs": [
        {
          "internalType": "uint256",
          "name": "_taskIndex",
          "type": "uint256"
        },
        {
          "internalType": "enum scrum.taskProgress",
          "name": "_phase",
          "type": "uint8"
        }
      ],
      "name": "updateTaskPhase",
      "outputs": [],
      "stateMutability": "nonpayable",
      "type": "function"
    },
    {
      "inputs": [
        {
          "internalType": "uint256",
          "name": "_priority",
          "type": "uint256"
        }
      ],
      "name": "getTaskWithPriority",
      "outputs": [
        {
          "internalType": "uint256[]",
          "name": "",
          "type": "uint256[]"
        }
      ],
      "stateMutability": "view",
      "type": "function",
      "constant": true
    }
  ],
  "bytecode": "0x60806040523480156200001157600080fd5b5060008081905550620000676040518060400160405280600c81526020017f494e4954204241434b4c4f4700000000000000000000000000000000000000008152506014600160006001620001aa60201b60201c565b50620000b66040518060400160405280600981526020017f494e495420544f444f00000000000000000000000000000000000000000000008152506028600360016002620001aa60201b60201c565b50620001056040518060400160405280600f81526020017f494e495420494e50524f47524553530000000000000000000000000000000000815250603c600560026003620001aa60201b60201c565b50620001546040518060400160405280600b81526020017f494e4954205245564945570000000000000000000000000000000000000000008152506050600760036004620001aa60201b60201c565b50620001a36040518060400160405280600981526020017f494e495420444f4e4500000000000000000000000000000000000000000000008152506064600d60046005620001aa60201b60201c565b506200085a565b600060018210158015620001bf575060058211155b62000201576040517f08c379a0000000000000000000000000000000000000000000000000000000008152600401620001f89062000534565b60405180910390fd5b60006040518060c001604052803373ffffffffffffffffffffffffffffffffffffffff16815260200188815260200187815260200186815260200185600481111562000252576200025162000556565b5b8152602001848152509050600181908060018154018082558091505060019003906000526020600020906006020160009091909190915060008201518160000160006101000a81548173ffffffffffffffffffffffffffffffffffffffff021916908373ffffffffffffffffffffffffffffffffffffffff1602179055506020820151816001019080519060200190620002ee92919062000423565b50604082015181600201556060820151816003015560808201518160040160006101000a81548160ff0219169083600481111562000331576200033062000556565b5b021790555060a08201518160050155505060018080549050620003559190620005be565b91506000808154809291906200036b90620005f9565b9190505550600260003373ffffffffffffffffffffffffffffffffffffffff1673ffffffffffffffffffffffffffffffffffffffff1681526020019081526020016000208290806001815401808255809150506001900390600052602060002001600090919091909150557f0f8547f6e2241438ed2b1d6a3091d58136478be28ae5e3a6622a483a951ff6e9338888888888604051620004119695949392919062000781565b60405180910390a15095945050505050565b828054620004319062000824565b90600052602060002090601f016020900481019282620004555760008555620004a1565b82601f106200047057805160ff1916838001178555620004a1565b82800160010185558215620004a1579182015b82811115620004a057825182559160200191906001019062000483565b5b509050620004b09190620004b4565b5090565b5b80821115620004cf576000816000905550600101620004b5565b5090565b600082825260208201905092915050565b7f7072696f72697479206d757374206265206265747765656e203120616e642035600082015250565b60006200051c602083620004d3565b91506200052982620004e4565b602082019050919050565b600060208201905081810360008301526200054f816200050d565b9050919050565b7f4e487b7100000000000000000000000000000000000000000000000000000000600052602160045260246000fd5b6000819050919050565b7f4e487b7100000000000000000000000000000000000000000000000000000000600052601160045260246000fd5b6000620005cb8262000585565b9150620005d88362000585565b925082821015620005ee57620005ed6200058f565b5b828203905092915050565b6000620006068262000585565b91507fffffffffffffffffffffffffffffffffffffffffffffffffffffffffffffffff8214156200063c576200063b6200058f565b5b600182019050919050565b600073ffffffffffffffffffffffffffffffffffffffff82169050919050565b6000620006748262000647565b9050919050565b620006868162000667565b82525050565b600081519050919050565b60005b83811015620006b75780820151818401526020810190506200069a565b83811115620006c7576000848401525b50505050565b6000601f19601f8301169050919050565b6000620006eb826200068c565b620006f78185620004d3565b93506200070981856020860162000697565b6200071481620006cd565b840191505092915050565b6200072a8162000585565b82525050565b6005811062000744576200074362000556565b5b50565b6000819050620007578262000730565b919050565b6000620007698262000747565b9050919050565b6200077b816200075c565b82525050565b600060c0820190506200079860008301896200067b565b8181036020830152620007ac8188620006de565b9050620007bd60408301876200071f565b620007cc60608301866200071f565b620007db608083018562000770565b620007ea60a08301846200071f565b979650505050505050565b7f4e487b7100000000000000000000000000000000000000000000000000000000600052602260045260246000fd5b600060028204905060018216806200083d57607f821691505b60208210811415620008545762000853620007f5565b5b50919050565b610ece806200086a6000396000f3fe608060405234801561001057600080fd5b50600436106100625760003560e01c8063040627f31461006757806310b488711461009c578063a4e663c6146100b8578063d8f0bae4146100e8578063f04a24b114610106578063fcfb0ff914610136575b600080fd5b610081600480360381019061007c91906107cf565b610154565b6040516100939695949392919061095c565b60405180910390f35b6100b660048036038101906100b191906109e9565b61030c565b005b6100d260048036038101906100cd91906107cf565b6103d9565b6040516100df9190610ae7565b60405180910390f35b6100f06103e0565b6040516100fd9190610b09565b60405180910390f35b610120600480360381019061011b9190610c59565b6103e6565b60405161012d9190610b09565b60405180910390f35b61013e61064d565b60405161014b9190610ae7565b60405180910390f35b600060606000806000806001878154811061017257610171610cf0565b5b906000526020600020906006020160000160009054906101000a900473ffffffffffffffffffffffffffffffffffffffff169550600187815481106101ba576101b9610cf0565b5b906000526020600020906006020160010180546101d690610d4e565b80601f016020809104026020016040519081016040528092919081815260200182805461020290610d4e565b801561024f5780601f106102245761010080835404028352916020019161024f565b820191906000526020600020905b81548152906001019060200180831161023257829003601f168201915b505050505094506001878154811061026a57610269610cf0565b5b90600052602060002090600602016002015493506001878154811061029257610291610cf0565b5b9060005260206000209060060201600301549250600187815481106102ba576102b9610cf0565b5b906000526020600020906006020160040160009054906101000a900460ff169150600187815481106102ef576102ee610cf0565b5b906000526020600020906006020160050154905091939550919395565b813373ffffffffffffffffffffffffffffffffffffffff166001828154811061033857610337610cf0565b5b906000526020600020906006020160000160009054906101000a900473ffffffffffffffffffffffffffffffffffffffff1673ffffffffffffffffffffffffffffffffffffffff1614156103d457816001848154811061039b5761039a610cf0565b5b906000526020600020906006020160040160006101000a81548160ff021916908360048111156103ce576103cd6108e5565b5b02179055505b505050565b6060919050565b60005481565b6000600182101580156103fa575060058211155b610439576040517f08c379a000000000000000000000000000000000000000000000000000000000815260040161043090610dcc565b60405180910390fd5b60006040518060c001604052803373ffffffffffffffffffffffffffffffffffffffff168152602001888152602001878152602001868152602001856004811115610487576104866108e5565b5b8152602001848152509050600181908060018154018082558091505060019003906000526020600020906006020160009091909190915060008201518160000160006101000a81548173ffffffffffffffffffffffffffffffffffffffff021916908373ffffffffffffffffffffffffffffffffffffffff16021790555060208201518160010190805190602001906105219291906106e2565b50604082015181600201556060820151816003015560808201518160040160006101000a81548160ff02191690836004811115610561576105606108e5565b5b021790555060a082015181600501555050600180805490506105839190610e1b565b915060008081548092919061059790610e4f565b9190505550600260003373ffffffffffffffffffffffffffffffffffffffff1673ffffffffffffffffffffffffffffffffffffffff1681526020019081526020016000208290806001815401808255809150506001900390600052602060002001600090919091909150557f0f8547f6e2241438ed2b1d6a3091d58136478be28ae5e3a6622a483a951ff6e933888888888860405161063b9695949392919061095c565b60405180910390a15095945050505050565b6060600260003373ffffffffffffffffffffffffffffffffffffffff1673ffffffffffffffffffffffffffffffffffffffff1681526020019081526020016000208054806020026020016040519081016040528092919081815260200182805480156106d857602002820191906000526020600020905b8154815260200190600101908083116106c4575b5050505050905090565b8280546106ee90610d4e565b90600052602060002090601f0160209004810192826107105760008555610757565b82601f1061072957805160ff1916838001178555610757565b82800160010185558215610757579182015b8281111561075657825182559160200191906001019061073b565b5b5090506107649190610768565b5090565b5b80821115610781576000816000905550600101610769565b5090565b6000604051905090565b600080fd5b600080fd5b6000819050919050565b6107ac81610799565b81146107b757600080fd5b50565b6000813590506107c9816107a3565b92915050565b6000602082840312156107e5576107e461078f565b5b60006107f3848285016107ba565b91505092915050565b600073ffffffffffffffffffffffffffffffffffffffff82169050919050565b6000610827826107fc565b9050919050565b6108378161081c565b82525050565b600081519050919050565b600082825260208201905092915050565b60005b8381101561087757808201518184015260208101905061085c565b83811115610886576000848401525b50505050565b6000601f19601f8301169050919050565b60006108a88261083d565b6108b28185610848565b93506108c2818560208601610859565b6108cb8161088c565b840191505092915050565b6108df81610799565b82525050565b7f4e487b7100000000000000000000000000000000000000000000000000000000600052602160045260246000fd5b60058110610925576109246108e5565b5b50565b600081905061093682610914565b919050565b600061094682610928565b9050919050565b6109568161093b565b82525050565b600060c082019050610971600083018961082e565b8181036020830152610983818861089d565b905061099260408301876108d6565b61099f60608301866108d6565b6109ac608083018561094d565b6109b960a08301846108d6565b979650505050505050565b600581106109d157600080fd5b50565b6000813590506109e3816109c4565b92915050565b60008060408385031215610a00576109ff61078f565b5b6000610a0e858286016107ba565b9250506020610a1f858286016109d4565b9150509250929050565b600081519050919050565b600082825260208201905092915050565b6000819050602082019050919050565b610a5e81610799565b82525050565b6000610a708383610a55565b60208301905092915050565b6000602082019050919050565b6000610a9482610a29565b610a9e8185610a34565b9350610aa983610a45565b8060005b83811015610ada578151610ac18882610a64565b9750610acc83610a7c565b925050600181019050610aad565b5085935050505092915050565b60006020820190508181036000830152610b018184610a89565b905092915050565b6000602082019050610b1e60008301846108d6565b92915050565b600080fd5b600080fd5b7f4e487b7100000000000000000000000000000000000000000000000000000000600052604160045260246000fd5b610b668261088c565b810181811067ffffffffffffffff82111715610b8557610b84610b2e565b5b80604052505050565b6000610b98610785565b9050610ba48282610b5d565b919050565b600067ffffffffffffffff821115610bc457610bc3610b2e565b5b610bcd8261088c565b9050602081019050919050565b82818337600083830152505050565b6000610bfc610bf784610ba9565b610b8e565b905082815260208101848484011115610c1857610c17610b29565b5b610c23848285610bda565b509392505050565b600082601f830112610c4057610c3f610b24565b5b8135610c50848260208601610be9565b91505092915050565b600080600080600060a08688031215610c7557610c7461078f565b5b600086013567ffffffffffffffff811115610c9357610c92610794565b5b610c9f88828901610c2b565b9550506020610cb0888289016107ba565b9450506040610cc1888289016107ba565b9350506060610cd2888289016109d4565b9250506080610ce3888289016107ba565b9150509295509295909350565b7f4e487b7100000000000000000000000000000000000000000000000000000000600052603260045260246000fd5b7f4e487b7100000000000000000000000000000000000000000000000000000000600052602260045260246000fd5b60006002820490506001821680610d6657607f821691505b60208210811415610d7a57610d79610d1f565b5b50919050565b7f7072696f72697479206d757374206265206265747765656e203120616e642035600082015250565b6000610db6602083610848565b9150610dc182610d80565b602082019050919050565b60006020820190508181036000830152610de581610da9565b9050919050565b7f4e487b7100000000000000000000000000000000000000000000000000000000600052601160045260246000fd5b6000610e2682610799565b9150610e3183610799565b925082821015610e4457610e43610dec565b5b828203905092915050565b6000610e5a82610799565b91507fffffffffffffffffffffffffffffffffffffffffffffffffffffffffffffffff821415610e8d57610e8c610dec565b5b60018201905091905056fea264697066735822122022a32265597ae721472e3d415914ada8c4593490dd67ecdfd910e424359c0d3764736f6c634300080b0033",
  "immutableReferences": {},
  "source": "// SPDX-License-Identifier: GPL-3.0\r\npragma solidity 0.8.11;\r\n\r\ncontract scrum {\r\n\r\n    uint public nSprintTasks;\r\n    \r\n    struct taskStruct {\r\n        address owner;\r\n        string name;\r\n        uint conclusionTime;\r\n        uint effort;\r\n        taskProgress phase;\r\n        uint priority;\r\n    }\r\n\r\n    enum taskProgress {\r\n        backlog,\r\n        toDo,\r\n        inProgress,\r\n        review,\r\n        done\r\n    } \r\n\r\n    taskStruct[] private sprint;\r\n\r\n    mapping (address => uint[]) private myTasks;\r\n\r\n    event TaskAdded(address owner, string name, uint conclusionTime, uint effort, taskProgress phase, uint priority);\r\n\r\n    modifier onlyOwner (uint _taskIndex) {\r\n        if(sprint[_taskIndex].owner == msg.sender) {\r\n            _;\r\n        }\r\n    }\r\n\r\n    constructor() {\r\n        nSprintTasks = 0;      \r\n        addTask (\"INIT BACKLOG\", 20, 1, taskProgress.backlog, 1);\r\n        addTask (\"INIT TODO\", 40, 3, taskProgress.toDo, 2);\r\n        addTask (\"INIT INPROGRESS\", 60, 5, taskProgress.inProgress, 3);\r\n        addTask (\"INIT REVIEW\", 80, 7, taskProgress.review, 4);\r\n        addTask (\"INIT DONE\", 100, 13, taskProgress.done, 5);\r\n    } \r\n\r\n    function getSprintTask(uint _taskIndex) public view\r\n        returns (address owner, string memory name, uint conclusionTime, uint effort, taskProgress phase, uint priority) {\r\n        owner = sprint[_taskIndex].owner;        \r\n        name = sprint[_taskIndex].name;\r\n        conclusionTime = sprint[_taskIndex].conclusionTime;\r\n        effort = sprint[_taskIndex].effort;\r\n        phase = sprint[_taskIndex].phase;\r\n        priority = sprint[_taskIndex].priority;\r\n    }\r\n\r\n    function sprintTaskList() public view returns (uint[] memory) {\r\n        return myTasks[msg.sender];\r\n    }\r\n\r\n    function addTask(string memory _name, uint _conclusionTime, uint _effort, taskProgress _phase, uint _priority) public returns (uint index) {\r\n        require ((_priority >= 1 && _priority <=5), \"priority must be between 1 and 5\");\r\n\r\n        taskStruct memory taskAux = taskStruct ({\r\n            owner: msg.sender,\r\n            name: _name,\r\n            conclusionTime: _conclusionTime,\r\n            effort: _effort,\r\n            phase: _phase, \r\n            priority: _priority\r\n        });\r\n        \r\n        sprint.push(taskAux);\r\n        index = sprint.length - 1;\r\n        nSprintTasks ++;\r\n        myTasks[msg.sender].push(index);\r\n\r\n        emit TaskAdded(msg.sender, _name, _conclusionTime, _effort, _phase, _priority);\r\n    }\r\n\r\n    function updateTaskPhase(uint _taskIndex, taskProgress _phase) public onlyOwner(_taskIndex) {\r\n        sprint[_taskIndex].phase = _phase;\r\n    }\r\n\r\n    function getTaskWithPriority(uint _priority) public view returns(uint[] memory) {\r\n\r\n    }\r\n\r\n    //Tarefas para grupos\r\n    //Ao invs da tarefa ser exclusiva do owner, poderamos definir grupos para visualizar ou alterar a tarefa.\r\n\r\n}",
  "sourcePath": "C:\\solidity\\todo\\contracts\\scrum.sol",
  "compiler": {
    "name": "solc",
    "version": "0.8.11+commit.d7f03943.Emscripten.clang"
  },
  "schemaVersion": "3.4.4",
  "updatedAt": "2021-12-29T21:46:02.946Z",
  "networkType": "ethereum",
  "devdoc": {
    "kind": "dev",
    "methods": {},
    "version": 1
  },
  "userdoc": {
    "kind": "user",
    "methods": {},
    "version": 1
  }
}